:020000040800F2
:10000000800C0020C1010008DF110008F50B00087A
:10001000DD1100080B0300088D1900080000000026
:10002000000000000000000000000000291500088A
:100030008504000800000000A51200080116000851
:10004000DB010008DB010008DB010008DB01000820
:10005000DB010008DB010008DB010008DB01000810
:10006000DB010008DB010008DB010008DB01000800
:10007000DB010008DB010008DB010008DB010008F0
:10008000DB010008DB010008DB010008DB010008E0
:10009000DB010008DB010008DB010008DB010008D0
:1000A000DB010008DB010008DB010008DB010008C0
:1000B000DB010008DB010008DB010008DB010008B0
:1000C000DB010008DB010008DB010008DB010008A0
:1000D000DB01000865170008DB010008C5170008F0
:1000E00005070008DB010008DB010008DB01000850
:1000F000DB010008DB010008DB010008DB01000870
:10010000DB010008DB010008DB010008DB0100085F
:10011000DB010008DB010008DB010008DB0100084F
:10012000DB010008DB010008DB010008DB0100083F
:10013000DB010008DB010008DB010008DB0100082F
:10014000DB010008DB010008DB010008DB0100081F
:10015000DB010008DB010008DB010008DB0100080F
:10016000DB010008DB010008DB010008DB010008FF
:10017000DB010008DB010008DB010008DB010008EF
:10018000DB010008DB010008DB010008DB010008DF
:10019000DB010008DB010008DB010008DB010008CF
:1001A000DB010008DB010008DB010008DFF80CD0F0
:1001B00000F07AF80048004729230008800C00204E
:1001C0000648804706480047FEE7FEE7FEE7FEE7F1
:1001D000FEE7FEE7FEE7FEE7FEE7FEE7451600085E
:1001E000AD01000840EA01039B0703D009E008C9FC
:1001F000121F08C0042AFAD203E011F8013B00F8EC
:10020000013B521EF9D27047D2B201E000F8012B37
:10021000491EFBD270470022F6E710B513460A4686
:1002200004461946FFF7F0FF204610BD10B50446FE
:1002300004E00B7800F8013B03B1491C521EF8D2D0
:10024000204610BD2DE9F05F0546002092469B46F2
:1002500088460646814640241BE0284641464746DC
:10026000224600F042F853465A46C01A914110D334
:1002700011461846224600F029F82D1A67EB0108AE
:100280004F4622460120002100F020F817EB00091C
:100290004E41201EA4F10104DFDC484631462A46C7
:1002A0004346BDE8F09F0000064C074D06E0E068BD
:1002B00040F0010394E8070098471034AC42F6D3AD
:1002C000FFF778FFD8280008F8280008202A04DB68
:1002D000203A00FA02F1002070479140C2F1200359
:1002E00020FA03F3194390407047202A04DB203A98
:1002F00021FA02F00021704721FA02F3D040C2F146
:1003000020029140084319467047FEE71CB50121C1
:10031000022000F0E7FF0820009001208DF8040083
:1003200000218DF806108DF8070002208DF80500D9
:100330006946024800F05EFA1CBD0000000402405D
:100340001CB50820009000208DF804008DF80700EF
:1003500002208DF805006946014800F04BFA1CBDEB
:10036000000402401CB50820009001208DF8040014
:1003700000218DF806108DF8070002208DF8050089
:100380006946024800F036FA1CBD00000004024035
:1003900010B50121CC05204600F0B2FF2046BDE893
:1003A0001040002100F0ACBF01460020024A526814
:1003B0000A4200D00120704700B0024030B500244E
:1003C0002A4B19682A4A11401960196802681143BA
:1003D0001960596B21F007015963596B4268114349
:1003E00059634168002928D001292DD0022930D035
:1003F000032933D0C1680A01016909024469240351
:100400008568214315430D43996B0D439D638169B5
:10041000D963196C6FF30D011964196CC26911432A
:100420001964818C09045A6C02F040425A645A6C77
:10043000006A02430A435A6430BDC1680A02018A55
:100440000904047D2406DBE7C1680A02018A090465
:10045000D6E7C1684A010169C902D1E7C1684A010A
:10046000016989024469E403CAE7000000B0024060
:10047000FCE0FCFF0248016841F0010101607047A7
:1004800000B002407047000070B586B001210846F8
:1004900000F028FF0121102000F04EFF00248DF80D
:1004A000164001208DF8170002258DF815508DF8A3
:1004B0001450400204901F4E04A9304600F09AF9EF
:1004C0008DF814506902049104A9304600F092F9A5
:1004D00007220A21304600F0CBF9072209213046D5
:1004E00000F0C6F94FF4E1300090ADF80440ADF8EB
:1004F0000640ADF80840ADF80C400C20ADF80A00FD
:100500000D4C6946204601F0DBF900F069FE01223E
:1005100040F22551204601F0B8F9012240F2244171
:10052000204601F0B2F90121204601F07BF906B026
:1005300070BD0000000002400010014001B50348FA
:100540000099016001680029FCD108BD70000020FD
:100550002DE9F8431446089A0E461D46674B664936
:100560004FF0010C1F7831F827100CEB4101A1422C
:1005700030DA81422EDA92F80480E21EC31EB8F10E
:10058000090F27D2DFE808F00518283744536475AF
:100590009000002801DB002E05DA29462046BDE840
:1005A000F84300F081BE01B0ABB2A2B2B1B2BDE877
:1005B000F04380B200F0D8BC621E91420ADC421EB9
:1005C000914207DCABB2A2B2B1B280B2CDF800C0AA
:1005D00000F026FDBDE8F883A21E9142FADC821EDF
:1005E0009142F7DC02210091ABB2A2B2B1B280B26B
:1005F00000F016FDEEE79142ECDC9942EADC0321C3
:100600000091ABB2A2B2B1B280B200F009FDE1E755
:10061000221F9142DEDC021F9142DBDC04210091AB
:10062000ABB2A2B2B1B280B200F0FAFCD2E7A4F150
:1006300008029142CEDCA0F108029142CADC0821F6
:100640000091ABB2A2B2B1B280B200F0E9FCC1E756
:10065000A4F10A029142BDDCA0F10A029142B9DC88
:100660000A210091ABB2A2B2B1B280B200F0D8FCC4
:10067000B0E79142AEDC9942ACDC002801DB002EF1
:1006800005DA29462046BDE8F84300F00DBEABB2BE
:10069000A2B2B1B280B200F067FCA9B2A0B2BDE8CC
:1006A000F843032200F076BBA4F114000646814211
:1006B00090DC134807EB470100EB810004F11401C3
:1006C00002898A4286DB142C84D4418905F1140006
:1006D00081428FDB142D8DD44FF6FF70014600F060
:1006E0001DFD143D01B0A9B2B0B2BDE8F04328230E
:1006F0001A4600F09DBB0000E827000824000020F7
:10070000C427000810B54FF40054204600F010F83C
:10071000002806D000F026F92046BDE8104000F081
:1007200001B810BD0149086070470000143C014049
:1007300001460020024A12680A4200D00120704798
:10074000143C014070B586B00121022000F0CAFDC2
:100750000121880400F0E2FD00248DF816400120FC
:100760008DF8170002258DF815508DF81450800271
:1007700004901E4E04A9304600F03CF88DF8145049
:10078000A902049104A9304600F034F807220B2195
:10079000304600F06DF807220A21304600F068F874
:1007A0004FF416500090ADF80440ADF80640ADF897
:1007B0000840ADF80C400C20ADF80A000C4C69461E
:1007C000204601F07DF8012240F22551204601F03B
:1007D0005CF8012240F22441204601F056F8012144
:1007E000204601F01FF806B070BD00000004024072
:1007F000004800402DE9F041002201274FF0030C92
:1008000007FA02F50B682B40AB422CD10668530067
:100810000CFA03F4A64306600E79D0F800809E40DF
:1008200046EA080606600E79012E01D0022E12D18A
:100830008668A64386604E79D0F808809E4046EAD6
:10084000080686604668AE43466045688E799640E5
:10085000B6B235434560C568A543C560CC799C40B8
:10086000C3681C43C460521C102AC9D3BDE8F08180
:1008700010B54B07DB0E9A40C90800EB8100016AF6
:100880000F249C40A1430162016A1143016210BD23
:100890000246002012690A4200D0012070474183BD
:1008A0007047018370470000F0B587B00E461746C9
:1008B0004FF0FF3500240021ADF806108DF804003C
:1008C0000221ADF8081003960121ADF812108DF841
:1008D0001000B81EADF81400B01C069007E002210D
:1008E00001A800F0ABF90546022D02D0641C052CCE
:1008F000F5DB052C08DB707831782B4640EA0121C6
:10090000BA1E034801F060F807B02846F0BD0000A9
:1009100034280008FEB50E4617464FF0FF35002478
:100920000021ADF802108DF80000ADF804700296B9
:1009300007E00121684600F081F90546012D02D04B
:10094000641C052CF5DB052C08DB707831782B4610
:1009500040EA0121BA1E024801F036F82846FEBDE1
:100960008428000800F076B82DE9FC4104460E46C4
:100970001546CDE90053334622464FF4ED710EA0E3
:1009800001F022F8A9B2B0B200F094FE174F164859
:100990000090A7F10A082BB232B237F9141038F9D7
:1009A00014001D461646FFF7D3FD28F8146027F8FB
:1009B0001450BDE8FC8100003C3C2D4754502D44B0
:1009C000454255472D3E3E205B25645D49443A250E
:1009D000642C20583A25642C20593A25642C205741
:1009E0003A25640A0000000038000020540000206E
:1009F00070B504460B4EA6F10A0536F8141035F80A
:100A0000140000F085FE4FF0FF3025F8140026F8A2
:100A100014002246BDE8704040F2062102A000F01A
:100A2000D3BF0000540000203C3C2D4754502D44BF
:100A3000454255472D3E3E205B25645D546F7563EE
:100A4000682069645B2532645D2072656C65617342
:100A500065210A002DE9F04F97B04CA00068169070
:100A600028210DF12C090CA8FFF7D5FB484C206874
:100A70000B904FF0BA0B00260C220BA95846FFF73B
:100A800013FF0146002905DA42A000F09DFF17B0D0
:100A9000BDE8F08F9DF82E000028F8D0010669D53A
:100AA00000F00F05052D65D8012D14D9242101AFC3
:100AB000381DFFF7B0FB60680190681E022101EB52
:100AC000C002044601A95846FFF7EEFEE200B91C39
:100AD0000EA8FFF787FBDFF8ECA00AF10408BAF8CC
:100AE0000200A84215D818E000246F1E0EE009EBA2
:100AF000C400C07800F00F0118F80600884207D043
:100B0000BC4201DBFFF774FF641CE4B2AC42EED3DD
:100B1000761CBAF802008642E6DBDDB1002416E05E
:100B200009EBC400C17801F00F0608F804600179F0
:100B3000427941EA02218279C37942EA0322037AA7
:100B4000407A43EA00233046FFF70EFF641CAC42B4
:100B5000E6DB0DE0BAF8020050B1002404E018F81A
:100B60000400FFF745FF641CBAF802008442F6DB7C
:100B7000AAF80250032216A95846FFF7CBFE002818
:100B800085DA11A000F020FF81E70000814E00000F
:100B9000F42700083C3C2D4754502D4552524F52EB
:100BA0002D3E3E20493243207472616E7366657239
:100BB000206572726F722E206572726E6F3A2564B4
:100BC0000A200A00400000203C3C2D4754502D498B
:100BD0004E464F2D3E3E2049324320777269746560
:100BE00020656E645F636D64206572726F72210AA6
:100BF00000000000FEE770B506460D46144601F001
:100C00000FFB46F0010001F0DFFA01F039FB60B1A3
:100C100001F022FB012070BD01F0B4FA05F8010BD0
:100C2000641EA4B23CB101F073FA002CF4D101F0BF
:100C300013FB002070BD01F08DFAF6E770B5054694
:100C40000E460024002014E004EB440005EB800372
:100C50009978C90706D09A8815F820009968FFF797
:100C6000CAFF05E01A7915F82000996800F008F825
:100C7000641C08B9B442E7D1002800D1204670BDF9
:100C80002DE9F04180460E46154601F0E5FA0024B4
:100C90004FF47A7701F0C4FA404601F095FA01F07A
:100CA000EFFA18B1641CA4B2BC42F3D3BC4206D024
:100CB0000BE0307801F088FA01F0E2FA20B101F09F
:100CC000CBFA0120BDE8F081761C6D1EEDB2F0D2AA
:100CD00001F0C2FA0020F5E72DE9F04F524200235F
:100CE000022404EB4204DFF8A480DFF8A490B8F8F3
:100CF0000260D8F8085098F80070A0EB020B07EBE0
:100D0000470709EB870701EB030A3F8907FB0AB78F
:100D100025F8176098F800C087180CEB4C0C09EB0D
:100D20008C0CBCF808C00CFB0A7C25F81C6098F8F9
:100D300000C00CEB4C0C09EB8C0CBCF808A0A1EB30
:100D4000030C0AFB0C7725F8176098F8007007EB86
:100D5000470709EB87073F8907FB0CB725F81760A2
:100D600027469F4208DC5B1C04EB4304641CDA4208
:100D700002D1974200DC0027974203DD521C04EBAE
:100D80004204641C002AB6DDBDE8F08F2400002078
:100D9000C42700082DE9F74F07468846029803212B
:100DA000A1EB40060024029D4FF6FF7935E09DB18E
:100DB00009EA4502A8EB050A381B93461FFA8AF197
:100DC00080B2012300F080F838195A461FFA8AF1E0
:100DD00080B2012300F078F89CB109EA4402A8EB44
:100DE000040A781B93461FFA8AF180B2012300F0AF
:100DF0006BF878195A461FFA8AF180B2012300F085
:100E000063F8002E03DA06EB8406B61D04E0601BCF
:100E100006EB80060A366D1E641CAC42C7D9029AE6
:100E200003B041463846BDE8F04FFFF755BF00001C
:100E30002DE9F04F8BB014469B46DFF88490B9F84B
:100E40000220D60A02F01F08C2F3451799F80020C5
:100E5000DFF870A002EB42020AEB8202128902FB69
:100E60000100D9F8081001EB4005FFF791FA4FF4A3
:100E700040300190022002900497CDF80C80059636
:100E80000F200690079599F8000000EB40000AEB50
:100E900080000089001B0890CDF824B00A9401A8B6
:100EA000FFF78CFAFFF7E6FA0220FFF77DFA002839
:100EB000FAD0B9F8020000F037F90BB0BDE8F08FB6
:100EC00024000020C42700082DE9F04F8BB0144601
:100ED0009A46DFF88C80DFF88C9098F8002002EBBF
:100EE000420209EB8202128902FB0100D8F80810C5
:100EF00001EB4005B8F80200C60A00F01F07C0F376
:100F0000451BFFF745FA4FF4403001900220029054
:100F1000CDF810B0039705960F2006900795012194
:100F2000BAF1000F17D098F8000000EB400009EB71
:100F300080000089401E089009940A9101A8FFF7DB
:100F40003DFAFFF797FA0220FFF72EFA0028FAD0B1
:100F50000BB0BDE8F08F0020089009910A94EDE7EE
:100F600024000020C42700082DE9FC4F84460C46CD
:100F70000027A2EB0C00002801DCACEB020000B261
:100F8000191B002900DCE11A09B20FFA8CF526B210
:100F90004FF0FF3B624503D34FF00109CA4601E021
:100FA000D946DA46A34204D34FF0010B0122019245
:100FB00001E0CDF804B088420ADB4FF000090022BE
:100FC000019200EBD072521014B20091804623E0DF
:100FD0004FF0000AD34601EBD172521014B20090C8
:100FE000884619E03146284600F05EF90098204412
:100FF00004B2444508DBA4EB080004B205EB090089
:1010000005B206EB0B0006B205EB0A0005B201982B
:10101000304406B27F1C3FB24745E3DDBDE8FC8F9C
:101020002DE9FE4F84460C9F0E464FF00008A2EBC0
:101030000C00002801DCACEB020000B2991B002977
:1010400000DCF11A09B20FFA8CF435B24FF0FF3917
:10105000624504D34FF0010A4FF0010B01E0CA468C
:10106000CB46B34203D301220292019203E0CDF8B2
:101070000890CDF8049088420ADB4FF0000A002265
:10108000019200EBD072521016B2009181463CE002
:101090004FF0000B0022029201EBD172521016B2F7
:1010A0000090894631E01B48E119007800EB4002CE
:1010B000194800EB82000289914222DAE11B0029E3
:1010C0001FDD4089E91981421BDAE81B002818DD81
:1010D000A9B2A0B23A46FFF75DFE0098304406B2CE
:1010E0004E4508DBA6EB090006B204EB0A0004B289
:1010F0000298284405B204EB0B0004B2019828447E
:1011000005B208F101080FFA88F8C845CBDDBDE843
:10111000FE8F000024000020C4270008014A5080F0
:1011200091807047240000200149488070470000EA
:101130002400002070B5114A4FF47A735943941C6F
:1011400001280AD0022810D0032805D19514158053
:101150000846FFF7F3F9258070BD4FF480651580D0
:101160000846FFF7EBF9258070BD4FF40065158048
:101170000846FFF7E3F9258070BD0000181C024007
:101180002DE9FC410121802000F0ACF84FF480648F
:10119000009401208DF8040000218DF806108DF8D0
:1011A00007008DF805100C4F69463846FFF722FB03
:1011B0006600009669463846FFF71CFBA5000095BF
:1011C00069463846FFF716FB03481A30048006804C
:1011D0000580BDE8FC810000001C0240FEE770476E
:1011E000F8B54FF4A066304600F052F825218DF88E
:1011F000001002258DF8015001248DF802408DF871
:101200000340684600F010F8304600F041F827200F
:101210008DF800008DF801408DF802508DF80340E4
:10122000684600F001F8F8BD30B50F23C2780125FB
:101230000178002A1FD0154A126802F4E062C2F554
:10124000E062C2F30722C2F10404D3404278A24014
:1012500084781C401443220101F1E02181F800242C
:10126000007800F01F018D404009800000F1E0206F
:10127000C0F8005130BD01F01F00854048098000D2
:1012800000F1E020C0F8805130BD00000CED00E01E
:101290000249084302490860704700000000FA054F
:1012A0000CED00E07047000010B5002815DB0B4C7A
:1012B000227802EB42030A4A02EB8302138983423B
:1012C0000BDB002909DB52898A4206DB03FB0100A4
:1012D000A16801EB40006188018010BD240000205E
:1012E000C4270008054A002903D011680143116092
:1012F0007047116881431160704700003038024028
:10130000054A002903D01168014311607047116834
:10131000814311607047000010380240054A0029DF
:1013200003D0116801431160704711688143116057
:101330007047000040380240054A002903D0116878
:1013400001431160704711688143116070470000CC
:101350004438024070B5244B196801F00C01234C4D
:1013600000291ED0224E04291DD008291DD004605A
:10137000196801F0F00109091E4A545C0168E14056
:1013800041601C6804F4E054A40A145D21FA04F4DA
:1013900084601B6803F460435B0BD25CD140C16086
:1013A00070BD0460E4E70660E2E70F4A121F1168AF
:1013B000C1F38055116801F03F0135B1B6FBF1F181
:1013C0001468C4F38814614305E0B4FBF1F11468B8
:1013D000C4F3881461431268C2F30142521C5200E4
:1013E000B1FBF2F10160C3E7083802400024F400C9
:1013F00040787D01140000202DE9F04100250024F3
:10140000144F012608213846FFF742FA0028F9D088
:101410002820FFF793F808213846FFF739FA01280A
:101420000BD0C4F1070006FA00F08543641CE4B257
:10143000082CE7D32846BDE8F08108213846FFF79D
:1014400027FA0128F9D0C4F1070006FA00F0C0B26B
:101450000543EBE7000402402DE9F0410446FEF7A6
:1014600081FF304F08213846FFF719FA44F6206013
:10147000FFF764F808213846FFF713FA1E20FFF73C
:101480005DF8FEF75DFF08213846FFF701FA10B15D
:101490000020BDE8F08100254FF47A7608E06D1C4D
:1014A000ADB2B54201D90020F3E70A20FFF746F8B4
:1014B00008213846FFF7ECF90028F0D0002508E0B5
:1014C0006D1CADB2B54201D90020E2E70A20FFF75A
:1014D00035F808213846FFF7DBF90128F0D0FFF78F
:1014E0008BFF2070FFF788FF6070FFF785FFA0700B
:1014F000FFF782FFE070FFF77FFF2071FEF732FFFA
:1015000008213846FFF7CDF920786178E278084461
:10151000A178114408442179884201D10120B8E71B
:101520000020B6E700040240704700001CB500210F
:10153000019100912E4A106840F4803010604FF401
:10154000A043106800F4003000900198401C019006
:10155000009810B901989842F3D11068800302D521
:101560000120009000E00091009801283FD1204820
:101570004030016841F0805101601E49086840F424
:10158000404008601A48083003680360036843F469
:1015900000430360036843F4A0530360041F164B29
:1015A0002360136843F08073136013689B01FCD5BC
:1015B0000A6842F480320A604A68D203FCD50A689D
:1015C00042F400320A604A689203FCD50B4A40F2AA
:1015D00005711160016821F003010160016841F0AB
:1015E000020101600168C1F381010229FAD11CBD29
:1015F0000038024000700040195A4007003C024089
:1016000000F04EB80C480D490068B0FBF1F0401EE8
:10161000B0F1807F01D301200AE04FF0E021486162
:10162000074AF02010700020886107200861002020
:10163000002800D0FEE770470000002040420F0065
:1016400023ED00E010B51248016841F4700101601B
:101650001048016841F0010101600E4A0021083282
:10166000116002680C4B1A400260031D0B4A1A609D
:10167000026822F48022026006480C300160FFF705
:1016800055FF03494FF000608039086010BD00002D
:1016900088ED00E000380240FFFFF6FE1030002425
:1016A00003480168002902D00168491E01607047A3
:1016B000700000202DE9F04105460E460024134F2E
:1016C00004EB440207EBC2008188A94210D3C18811
:1016D000B1420DD34188B1420AD837F83210A9423D
:1016E00006D8017B59B9012101730169884706E0D9
:1016F000017B012903D10021017301698847641C22
:10170000E4B2122CDCD3BDE8F0810000C00200205E
:1017100070B503460020124D00EB400205EBC204F9
:10172000A6889E4217D935F832209A4213D2E28811
:101730008A4210D962888A420DD200EB400005EB44
:10174000C000002101732169204688472046616955
:10175000BDE870400847401CC0B21228DCD370BD01
:10176000C002002070B5154E40F22551304600F001
:101770006CF8134C002578B1304600F0FFF8B4F84F
:1017800000116054B4F80001401C80B2A4F80001BC
:10179000FE2801D9A4F8005140F22441304600F05F
:1017A00054F8002808D0304600F0E8F8B4F80001FA
:1017B0002554012084F8020170BD00000010014092
:1017C000BC01002070B5154E40F22551304600F0A6
:1017D0003CF8134C002578B1304600F0CFF8B4F84F
:1017E00000116054B4F80001401C80B2A4F800015C
:1017F000FE2801D9A4F8005140F22441304600F0FF
:1018000024F8002808D0304600F0B8F8B4F80001F9
:101810002554012084F8020170BD000000480040FA
:10182000B8000020002904D0818941F40051818151
:101830007047818921F40051818170470246002060
:1018400012880A4200D00120704770B5002440F68B
:101850006A12C1F3421301F01F05012606FA05F2D0
:10186000012B0CD0022B0DD0838A1340090A8E4025
:10187000008830400BB100B10124204670BD83893F
:101880001340F3E7038A1340F0E710B540F66A13FC
:10189000C1F3421301F01F040121A140012B07D025
:1018A000022B07D014303AB102680A43026010BD1F
:1018B0000C30F8E71030F6E702688A43026010BD8A
:1018C0007FB504460D46208A20F44051E88808433D
:1018D0002082A08941F20C618843A9882A8911439A
:1018E0006A8902431143A181A08A20F44071A8892A
:1018F0000843A0826846FFF72DFD1E48844202D0AF
:101900001D48844201D1039800E00298A18909048E
:1019100008D500EBC00101EB001029684900B0FBBD
:10192000F1F007E000EBC00101EB0010296889002D
:10193000B0FBF1F06422B0FBF2F109010B096FF08A
:1019400018056B4300EB8300A3891D044FF032039D
:1019500007D503EBC000B0FBF2F000F0070008432E
:1019600006E003EB0010B0FBF2F000F00F000843BC
:1019700020817FBD00100140001401408088C0F329
:1019800008007047C1F3080181807047FEE72DE928
:10199000F04107460D46164600240BE0295D384607
:1019A000FFF7F0FF80213846FFF748FF0028F9D005
:1019B000641CA4B2B442F1D340213846FFF73EFF85
:1019C0000028F9D0BDE8F0810FB4054B10B503A98C
:1019D000044A029800F030F810BC5DF814FB0000D7
:1019E000ED1E0008840000200FB41CB50246002044
:1019F00007AC00290BD0491ECDE90021054B6A46F2
:101A00002146069800F018F8009A002111701CBCBD
:101A10005DF814FB9B1E000802E008C8121F08C1F5
:101A2000002AFAD170477047002001E001C1121F5F
:101A3000002AFBD1704700002DE9FF4F8DB00F4603
:101A40000546002606E025280BD0DDE90F12904759
:101A50006D1C761C28780028F5D111B03046BDE801
:101A6000F08F0024A246A1460122EC4900E0044385
:101A700015F8013F203B02FA03F00842F7D128781D
:101A80002A2810D06FF02F022878A0F13001092900
:101A900014D80AEB8A0102EB410144F0020400EB86
:101AA000010A6D1CF0E701CF5FEA000A03D544F498
:101AB0000054CAF1000A44F002046D1C28782E2854
:101AC00017D115F8010F44F004042A280ED06FF046
:101AD0002F022878A0F1300109290AD809EB8901E1
:101AE00002EB410100EB01096D1CF2E757F8049B82
:101AF0006D1C28786C280FD006DC4C2817D068287D
:101B00000DD06A2814D104E0742810D07A280FD19F
:101B10000DE044F400140AE044F4801401E044F4BD
:101B200040146978814202D104F580146D1C6D1C4B
:101B30002A786E2A1FD00CDC632A31D004DC002AFC
:101B40008BD0582A11D1A3E0642A68D0692A0CD11D
:101B500065E0732A2ED004DC6F2A73D0702A04D17A
:101B60009BE0752A6FD0782A6ED01046DDE90F12FF
:101B70009047761C50E1C4F30250022806D0032897
:101B800009D0042801CF09D0066045E101CFF11743
:101B9000C0E9006140E101CF06803DE106703BE114
:101BA00017F8040B8DF8000000208DF80100EB46BB
:101BB000012003E057F804BB4FF0FF3061074FF0FE
:101BC000000102D40DE008F10101884649450FDA11
:101BD0008045F8DB1BF808100029F4D108E008F173
:101BE000010188468142FADB1BF808100029F6D172
:101BF000DDE90F23AAEB08008146214600F036F903
:101C0000304400EB080604E0DDE90F121BF8010B7D
:101C10009047B8F10108F7D221464846F7E00A217B
:101C2000C4F302534FF0000B0891022B04D001CFF4
:101C3000C117032B09D00AE0FF1D27F00707F7E8BB
:101C4000020108E032E01FE020E000B2C117042BDF
:101C500001D140B2C117031E71F1000307DA4FF042
:101C6000000CD0EB0C006CEB01012D2302E02305EE
:101C700004D52B238DF82430012303E0E30701D0A2
:101C80002023F7E7984658E00A2110E010210EE0E3
:101C900010204FF0000B08900CE010214FF0000BCB
:101CA00044F004044FF00809089103E008214FF0C4
:101CB000000B0891C4F30253022B04D001CF002182
:101CC000032B06D006E0FF1D27F00707F7E8020107
:101CD00003E080B2042B00D1C0B24FF0000823070C
:101CE0002BD5702A07D0DDF820C08CF0100C5CEAF0
:101CF0000B0C05D00EE040238DF82430012308E0C2
:101D000050EA010306D030238DF824308DF82520C9
:101D100002239846DDF820C08CF0080C5CEA0B0C1E
:101D20000BD150EA010301D1630706D530238DF8AA
:101D300024304FF00108A9F10109582A04D038A233
:101D40000B9208AA0A920BE03AA2F9E75B46089ABE
:101D5000FEF778FA0B9B9B5C0A9A521E0A9213704C
:101D600050EA0102F2D10A98ADEB000000F1200B1D
:101D7000600702D524F4803401E04FF00109D94511
:101D800002DDA9EB0B0000E0002000EB0B01414459
:101D90000890AAEB010AE00306D4DDE90F232146EF
:101DA000504600F063F806444FF0000908E009A926
:101DB00011F80900DDE90F12904709F10109761CBD
:101DC000C145F4DBE0030CD5DDE90F232146504685
:101DD00000F04CF8064404E0DDE90F123020904793
:101DE000761C0899481E08900029F5DC08E00A983E
:101DF0000A990078491C0A91DDE90F129047761C78
:101E0000BBF10001ABF1010BF1DC21465046DDE9ED
:101E10000F2300F019F806446D1C1BE60928010089
:101E20003031323334353637383961626364656650
:101E30000000000030313233343536373839414212
:101E400043444546000000002DE9F04104460025CA
:101E50001E461746880404D405E039462020B047C2
:101E60006D1C641EF9D52846BDE8F0812DE9F041CE
:101E7000044600251E469046C80301D5302700E0E1
:101E80002027880404D505E041463846B0476D1C3C
:101E9000641EF9D52846BDE8F0814A68002A06D0BC
:101EA0000A68531C0B6010704868401E48607047F9
:101EB00070B505464FF6FF7000234AF201040EE0AC
:101EC000EA5C50400822C60702D04008604000E0AB
:101ED0004008521ED2B2002AF5D15B1C9BB28B4245
:101EE000EED370BD41EA00207047000070B5044693
:101EF000064DE1B22846FFF745FD80212846FFF751
:101F00009DFC0028F9D0204670BD00000010014063
:101F100010B5002821D0114B0022001F196803E0E2
:101F2000814203D80A4649680029F9D152B11368A1
:101F3000841A9C4204D1006818441060104602E0E4
:101F4000506000E0186039B102680B1A934203D167
:101F50000B681A4402604968416010BD8800002087
:101F6000F0B505AC70CCFF27077041808280C3803C
:101F7000048145818681FE218173F0BD2DE9F04108
:101F80000021344800F09CF9334E3249304600F0CD
:101F90004DFB47F230573846FEF7D0FA2F4D00245C
:101FA00095F80201012809D1B5F800110022284650
:101FB00000F0CEFAA5F8004185F80241012125483C
:101FC00000F07EF92349304600F030FB3846FEF73A
:101FD000B5FA95F80201012809D1B5F800110122DE
:101FE0001E4800F0B5FAA5F8004185F8024102212B
:101FF000184800F065F91749304600F017FB3846DD
:10200000FEF79CFA95F80201012809D1B5F80011F4
:102010000222124800F09CFAA5F8004185F802411E
:1020200003210C4800F04CF90A49304600F0FEFA52
:102030003846FEF783FA95F80201012808D105F524
:10204000807503222988054800F082FA2C80AC7044
:10205000BDE8F0815E00002000480040B80000208C
:1020600010B50948FFF7F8F90028FAD0064A517868
:102070001078FFF737FF044B1B1F1880D17890783A
:10208000FFF730FF588010BD7C0000203EB5124C99
:1020900094F8020101281ED11049204600F0B0FA40
:1020A000A0B10E484078012810D10D48038842881D
:1020B0000C48C1888DE80E008388428801880A4850
:1020C000FFF74EFF0849094800F0D0FA0020A4F8B5
:1020D000000184F802013EBDBC0100207400002014
:1020E00078000020660000207004002000100140ED
:1020F00070B50446062000F0F5F90546234603A214
:1021000006212846FFF770FC284670BD25750000A3
:1021100010B50C4C20212046FEF7C1FB00F014F84E
:1021200010212046FEF7BDFB00F00EF810212046DE
:10213000FEF7B5FB00F008F82046BDE8104020216E
:10214000FEF7AFBB001C02400020401CC0B232288A
:10215000FBD3704710B50A4C20212046FEF7A1FBA7
:10216000FFF7F2FF10212046FEF79BFBFFF7ECFF85
:1021700010212046FEF793FBBDE81040FFF7E4BFB7
:10218000001C024070B5002400250E4E6006040EAF
:1021900010213046FEF785FBFFF7D6FF20213046A1
:1021A000FEF776FB08B1641CE4B210213046FEF75E
:1021B00076FBFFF7C9FF6D1CEDB2082DE6D3204674
:1021C00070BD0000001C024070B505460024134E8F
:1021D000280604D520213046FEF763FB03E02021CA
:1021E0003046FEF75CFBFFF7AFFF10213046FEF7ED
:1021F00058FBFFF7A9FF10213046FEF750FB072CD4
:1022000003D120213046FEF74CFB6806050EFFF790
:102210009BFF641CE4B2082CDAD370BD001C0240A2
:1022200010B50C4C20212046FEF73BFB1021204628
:10223000FEF737FBFFF788FF20212046FEF72FFB34
:10224000FFF782FF10212046FEF729FBBDE8104072
:10225000FFF77ABF001C024010B5084C2021204631
:10226000FEF71DFB10212046FEF71BFBFFF76CFF5E
:102270002046BDE810402021FEF713BB001C0240A1
:1022800070B50E4D20212846FEF70BFBFFF75CFFD3
:1022900010212846FEF705FBFFF756FF20212846B0
:1022A000FEF7F6FA08B1012400E0002410212846C8
:1022B000FEF7F5FAFFF748FF204670BD001C02400C
:1022C0001CB5044601202070032262706180A0804A
:1022D0008DF8000060788DF801006088000A8DF8A4
:1022E0000200A0788DF80300A088000A8DF8040091
:1022F00020798DF8050006216846FFF7D9FDA07109
:10230000000AE0711CBD002101608180C0F8061048
:102310004181C1600182C0F81210C1828161C16136
:1023200001624162704700000EB5FFF76BF9FEF7DE
:1023300027FFFEF7A9F8FEF705FAFDF7E7FF25A04E
:10234000FFF742FB3048FFF7DEFF30A0FFF73CFB12
:102350003C48FEF7F3F8FFF783FE3B4D3BA06A884D
:102360002988FFF731FBFFF709FE414CE088009018
:10237000A388628821883FA0FFF726FB4AA0FFF7C9
:1023800023FB29886888E288CDE900210290A38890
:10239000628821881C4800F0ABF9504E504F3068DD
:1023A00080F480603060FFF7E9FDFFF759FE29886F
:1023B0006888E288CDE900210290A388628821889C
:1023C000114800F095F9FFF761FE3846FEF7B6F8C0
:1023D000E5E700002D2D2D2D2D2D2D2D2D2D2D2D15
:1023E0002D2D2D2D2D2D496E697420537563636538
:1023F00073732D2D2D2D2D2D2D2D2D2D2D2D2D2D81
:102400002D2D2D2D2D2D0A00900000202D2D2D2D50
:102410002D2D2D2D2D2D2D2D2D2D2D2D2D2D57618E
:10242000697420666F722073656E736F72732D2DE1
:102430002D2D2D2D2D2D2D2D2D2D2D2D2D2D2D2DCC
:102440002D2D0A0040420F007800002068756D694C
:102450003A202530345820A3A552482C2074656DAD
:10246000703A2025303458A1E6200D0A0000000003
:1024700066000020474153204F3220253034580A4F
:1024800047415320434F20253034580A47415320B9
:1024900048325320253034580A47415320434834AA
:1024A00020253034580A00002D2D2D2D2D2D2D2DB9
:1024B0002D2D2D2D2D2D2D2D2D2D426F6F74205353
:1024C0007563636573732D2D2D2D2D2D2D2D2D2DC4
:1024D0002D2D2D2D2D2D2D2D2D2D0A00141C0240BE
:1024E000400D0300F0B50B30154D20F0070100241E
:1024F000144A0FE003688B420BD38B4205D95E1A56
:1025000043184768C3E9006700E04368136002C0EE
:1025100004E0021D10680028ECD12046002802D1FA
:10252000286808B10020F0BD064A07481060074A35
:10253000121A22F00702C0E9002401202860D7E720
:102540008C000020880000208404002080080020E7
:102550007CB5154602788DF8002042788DF8012070
:1025600082788DF80220052946D3521D8A4243D82D
:1025700000236A4609E000EB43042679E47846EA42
:10258000042402EB4306B4805B1C9DF80240B3EBCD
:10259000540FF0DB421812F8023D8DF806305278E5
:1025A0008DF80720891E89B2FFF782FC9DF806107E
:1025B0009DF8072041EA022181421DD10F4835B123
:1025C000012D08D0022D0AD0032D0FD10BE0BDF84C
:1025D000041001800AE0BDF80410418006E0BDF857
:1025E0000410818002E0BDF80410C180BDE87C4089
:1025F00001210220FEF79EBD7CBD00006600002088
:1026000010B50278FF2A02D1C378FE2B01D000203A
:1026100010BD0A7042784A7082788A70C078C8709B
:1026200014210320FEF786FD012010BD1CB50A7899
:102630008DF800204A788DF801204A88120A8DF81A
:1026400002208A788DF803208A88120A8DF80420E7
:102650000A798DF805208A798DF80620C9798DF8D8
:10266000071008226946FFF792F91CBD7FB50646A0
:1026700008788DF800004888020A8DF801208DF84E
:1026800002008888020A8DF803208DF80400C888AB
:10269000020A8DF805208DF806000889020A8DF8D7
:1026A00007208DF808004889020A8DF809208DF866
:1026B0000A008889020A8DF80B208DF80C00887BAF
:1026C0008DF80D0000246D463046295DFFF75AF95C
:1026D00080213046FFF7B2F80028F9D0641C0E2C98
:1026E000F2D340213046FFF7A9F80028F9D07FBD8A
:1026F0002DE9F0470446DDE90876084692469846FB
:102700000A9DFFF7F5FC8146062249462046FDF763
:102710008DFD4846FFF7FCFB5046FFF7E9FC81467C
:1027200006224946A01DFDF781FD4846FFF7F0FB54
:102730004046FFF7DDFC80460622414604F10C00CE
:10274000FDF774FD4046FFF7E3FB3846FFF7D0FC8A
:1027500007460622394604F11200FDF767FD3846A8
:10276000FFF7D6FB304600F019F80646082231463E
:1027700004F11800FDF75AFD3046FFF7C9FB284663
:1027800000F00CF805460822294604F12000FDF768
:102790004DFD2846BDE8F047FFF7BABBF8B5040A7F
:1027A000C5B20820FFF79EFE0646234603A2082175
:1027B00030460095FFF718F93046F8BD25752E25EF
:1027C000303175002E170103280D21152003E0017B
:1027D0002E170101161621152003E0010802290A0F
:1027E00004040F0FE00110015A0032005A003200B9
:1027F00028001900814E000081580000814000002F
:10280000000000002003E00147802003E001478032
:10281000E001100150802003E00150802003E0011E
:102820004780000000000000814E00000000000012
:10283000000000003C3C2D4754502D4552524F5251
:102840002D3E3E2049324320526561643A20307863
:10285000253034582C2025642062797465732066F5
:1028600061696C65642C20657272636F64653A20DF
:102870002564212050726F636573732072657365E0
:10288000742E0A003C3C2D4754502D4552524F5255
:102890002D3E3E204932432057726974653A2030FC
:1028A00078253034582C2025642062797465732093
:1028B0006661696C65642C20657272636F64653A49
:1028C000202564212050726F6365737320726573D5
:1028D00065742E0A00000000F8280008000000209F
:1028E00090000000181A00088829000890000020B5
:1028F000F00B0000281A00080095BA0A000000003A
:10290000000000000102030406070809000000009F
:102910000102030401020304060708090000000085
:10292000FFFF0000000000D00000000000000000D9
:102930000000000000000000030000000000000094
:102940000000FFFFFFFFFFFFFFFFFFFFFFFFFFFF95
:10295000FFFFFFFFFFFF000000000000000000007D
:102960000000000000000000000000000000000067
:102970000000000000000000000000000000000057
:0829800000000000000000004F
:04000005080001AD41
:00000001FF
